:1000000009C016C015C014C013C012C011C010C062
:1000100010C00EC011241FBECFE9CDBF20E0A0E666
:10002000B0E001C01D92A236B207E1F71DD04BC06F
:10003000E7CF1F920F920FB60F9211248F938091EA
:1000400060008F5F8093600080916000882329F0BA
:1000500081E08093610010926000A8958F910F90CD
:100060000FBE0F901F9018958FEF87BBBC9AC49856
:1000700081B5886181BD81E281BD81B5806481BD2A
:10008000789485B7877E806185BF379880916100BD
:10009000882389F0C49A2FE58AEE90E021508040B1
:1000A0009040E1F700C00000C49885B7877E80616A
:1000B00085BF1092610085B7806285BF889585B73E
:0A00C0008F7D85BFE3CFF894FFCFDA
:00000001FF
